:020000040800F2
:100000006814002099010008FF2400083920000826
:10001000FD24000895090008152A000800000000CA
:1000200000000000000000000000000001010008C6
:100030000B0A000800000000450100081B2700080B
:10004000B3010008B3010008B3010008B3010008C0
:10005000B3010008B3010008B3010008B3010008B0
:10006000B3010008B3010008B3010008B3010008A0
:1000700099090008A5090008B1090008BD09000890
:10008000C9090008D5090008B3010008B301000838
:10009000B3010008B3010008B3010008B301000870
:1000A000B3010008B3010008B3010008B301000860
:1000B000C1270008B3010008B3010008B30100081C
:1000C000B3010008B3010008B3010008B301000840
:1000D000B3010008B3010008B3010008B301000830
:1000E000B3010008B3010008B3010008DFF80CD029
:1000F00000F0DCFA00480047352A000868140020A8
:10010000224B19680868B0E8F00F80F30988BFF344
:100110006F8F4FF0000080F311884EF00D0E704786
:100120000000000006480068006880F3088862B696
:1001300061B6BFF34F8FBFF36F8F00DF00BF00BF0B
:1001400008ED00E0EFF30980BFF36F8F0F4B1A68E3
:1001500020E9F00F106008B54FF0500080F31188CF
:10016000BFF34F8FBFF36F8F02F0E0FF4FF000003F
:1001700080F31188BDE8084019680868B0E8F00FFE
:1001800080F30988BFF36F8F704700BF50000020D5
:10019000EFF3058070470000064880470648004797
:1001A000FEE7FEE7FEE7FEE7FEE7FEE7FEE7FEE727
:1001B000FEE7FEE779270008ED000008202A04DBAF
:1001C000203A21FA02F00021704721FA02F3D040D0
:1001D000C2F12002914008431946704740EA0103EA
:1001E0009B0703D009E008C9121F08C0042AFAD2ED
:1001F00003E011F8013B00F8013B521EF9D27047B1
:10020000D2B201E000F8012B491EFBD27047002258
:10021000F6E710B513460A4604461946FFF7F0FF05
:10022000204610BD2DE9FE4F804681EA0300C00F35
:100230000C46009021F0004123F00045B8EB02008D
:10024000A94105D24046214690461C460B4602462F
:1002500023F00040104347D0270DC7F30A00C3F333
:100260000A510290401A019040286BDAC3F3130040
:1002700040F4801B0098924620B10023D2EB030A81
:1002800063EB0B0B01985946C0F14002504600F059
:100290008EF906460D4650465946019A00F096F9E9
:1002A00010EB08006141002487EA115284EAE773E9
:1002B0001A4340D0009A62B3019A012A4FEA0752CA
:1002C00015DC001B61EB02014FF0004202EA07520D
:1002D000CDE90042001C41F5801132462B4600F06A
:1002E00096F903B0BDE8F08F40462146F9E7001BC0
:1002F00061EB0201001C41F5801300185B412018DE
:10030000A2F5001747EB030140EAD570B6196D411D
:1003100011E06D084FEA360645EAC0754FEA07520C
:10032000001B61EB0201001C41F5801149084FEAF6
:1003300030000019514132462B4603B0BDE8F04F62
:1003400000F056B90098012240000023D0EB0202D1
:1003500063EBE073009821464FEAE074B8EB0000CD
:1003600061EB0401E9E783F000435BE781F00041C2
:1003700058E72DE9FE4F81EA030404F0004421F020
:10038000004100944FF0000B23F0004350EA0104B9
:100390005ED052EA03045BD0C3F30A54C1F30A559A
:1003A0002C44A4F2F3340194A0FB0254C1F31301D2
:1003B00041F48011C3F3130343F4801301FB02449F
:1003C00000FB034E840A970A44EA815447EA8357A4
:1003D000A4FB076802958D0A05FB07854FEA932C5D
:1003E00004FB0C542705029D4FEA065847EA1637CE
:1003F000B5EB08056EEB070C870E920E47EA8117E6
:1004000042EA8312A7FB0201B6EB0B0164EB000486
:100410002B0D43EA0C335E1844EB1C50DA46514670
:10042000E7FB0201C5F313044FEA0B3343EA14530D
:100430004FEA0432019C43EA0603A4F10C0402943F
:10044000009CCDE900B400F0E2F803B0BDE8F08F05
:1004500000200146F9E72DE9F04D81EA030404F09C
:10046000004B21F0004514464FF0000A23F00041F4
:1004700050EA050220D054EA01021DD0C5F30A5704
:100480000246C5F31303C1F31300C1F30A5640F447
:10049000801543F48013A7EB0608101BD64608F21C
:1004A000FD3873EB050002D308F1010801E0921852
:1004B0005B41B8F1000F03DA00200146BDE8F08D82
:1004C00000204FF48011064684460EE0171B73EBA4
:1004D000050705D3121B63EB050306434CEA010C29
:1004E00049084FEA300092185B4150EA0107EDD10C
:1004F00052EA030012D082EA040083EA05010843AD
:1005000005D0101BAB4106D20122002306E00022D9
:100510004FF0004302E06FF0010253101AEB0600A7
:100520004CEB085110EB0A0041EB0B01BDE8F04D1C
:1005300000F05EB870B521F0004303430CD0C1F366
:100540000A550024D5EB040564EB0403D617AD1A55
:10055000B34102DB0020014670BD201841EB02517F
:1005600070BD0EB540F2334102910021CDE900117A
:100570000A460B4600F04BF803B000BDC1F30A5227
:1005800010B5C1F3130140F2FF3341F480119A42D8
:1005900001DA002010BD40F233439A42A2F2334206
:1005A00003DC5242FFF70AFE10BD904010BD202A26
:1005B00004DB203A00FA02F1002070479140C2F1BA
:1005C000200320FA03F3194390407047202A06DBEA
:1005D000CB17203A41FA02F043EAE07306E041FA11
:1005E00002F3D040C2F120029140084319467047FF
:1005F00010B5141E73F1000408DA401C41F100012B
:1006000092185B411A4301D120F0010010BD2DE981
:10061000F04D92469B4611B1B1FA81F202E0B0FA78
:1006200080F220329046FFF7C2FF04460F4640EAB0
:100630000A0041EA0B0153465A46084313D01146BB
:1006400053EA010019D0C8F140025046FFF7B6FD49
:1006500005460E46504659464246FFF7A8FF084356
:1006600005D0012004E020463946BDE8F08D002089
:10067000054346EAE0762C4337430A986305E40ACB
:10068000A0EB08000022FD0A44EA47540A3002D5D4
:1006900000200146E9E7010510196941DDE9084537
:1006A00000196941BDE8F04DA2E70000064C074D76
:1006B00006E0E06840F0010394E807009847103432
:1006C000AC42F6D3FFF716FD7C3400089C340008DA
:1006D0002DE9F043AA4F4FF4807887B000224146BD
:1006E000384600F08BFB012002F0BFF94FF6FF7691
:1006F000334604AAA349A44801F07CF9A14D9DF812
:100700001000083D6C460F285ED1324605F11B01F2
:100710009D4801F0F3F9324605F11C019A4801F0B9
:10072000EDF9334606AA05F11E01974801F062F97A
:1007300033466A4605F10F01934801F05BF93346F1
:10074000621C05F11001904801F054F93346A21CD7
:1007500005F111018C4801F04DF93346E21C05F119
:100760001201894801F046F93346221D05F11301B3
:10077000854801F03FF93346621D05F114018248B6
:1007800001F038F9012002F070F9BDF80000711095
:10079000B0FBF1F24FF4FA6042439DF818004FF4B9
:1007A000FA6380EA52022A85BDF80220B2FBF1F218
:1007B0005A4380EA52026A85BDF80420B2FBF1F187
:1007C000594380EA5100A8854146B8460122404677
:1007D00000F014FB4FF4007900224946384600F03F
:1007E0000DFB012002F041F96649334604AA491E77
:1007F000654801F0FFF89DF810001E287ED1614980
:1008000032461031604801F079F95E4932460F31C5
:100810005D4801F073F95B49324611315A4801F0E5
:100820006DF9584932461231574801F067F9554978
:10083000334605AA1531544801F0DCF851493346D6
:10084000A21D491C504801F0D5F84E493346E21D1F
:10085000891C4D4801F0CEF84A493346C91C4A4824
:1008600002AA01F0C7F847493346091D46480DF171
:10087000090201F0BFF843493346491D42480DF1D2
:100880000A0201F0B7F83F493346891D3E480DF191
:100890000B0201F0AFF83B4933460D313A4803AA49
:1008A00001F0A8F8374933460E3137480DF10D02F3
:1008B00001F0A0F8012002F0D8F89DF81410BDF85E
:1008C0000600491C81F00204C00B60434FF47A71AA
:1008D0004843FFF746FE2D4E00223346FFF749FD01
:1008E000FFF74CFEE885BDF808004FF47A71C00BA5
:1008F00060434843FFF735FE002200E03DE0334609
:10090000FFF737FDFFF73AFE2886BDF80A004FF4DF
:100910007A71C00B60434843FFF723FE0022334641
:10092000FFF727FDFFF72AFE68869DF80D00C1003E
:100930009DF80C0001EB5014B4F5806F02D3A4F5C0
:100940000064A4B2FFF70DFE07460E462046FFF7EF
:1009500008FE6FF00202FFF7EDFD3A463346FFF75F
:100960007AFD00220A4BFFF75DFCFFF707FEA88621
:1009700001224946404600F041FA07B0BDE8F08345
:10098000000C0140080000208C0100200000F83F0E
:1009900000003740FEE70000014800F041B80000C9
:1009A000E4010020014800F03BB8000028020020CC
:1009B000014800F035B8000030030020014800F085
:1009C0002FB80000EC020020014800F029B8000018
:1009D00048010020014800F023B800000401002075
:1009E00030B590F840500124AC40C56B6C60046891
:1009F00063604368102B036803D099600068C2608D
:100A000030BD9A600068C16030BD704770470520F6
:100A100002F02BF801F06AFBFFF75AFEF7E700003F
:100A20002DE9F05FC16B0C6801680B68D0F840C01D
:100A3000042202FA0CF2494DDFF824A1494E4A4F34
:100A4000DFF828B1DFF828E122422CD05A072AD556
:100A50000A68920603D40A6822F004020A60016858
:100A6000A94201D1042219E0514501D1402215E0EB
:100A7000B14202D14FF4806210E0B94202D14FF48A
:100A800080420BE0594502D14FF4802206E07145C7
:100A900002D14FF4800201E04FF080622F49083903
:100AA0004A60C16A3BE04FF0020808FA0CF818EA05
:100AB000040F4FF000094FF0010235D05FEA837850
:100AC00032D50B689B0605D40B6823F00A030B6034
:100AD00080F821200168A94201D1022219E0514584
:100AE00001D1202215E0B14202D14FF4007210E092
:100AF000B94202D14FF400520BE0594502D14FF4F4
:100B0000003206E0714502D14FF4001201E04FF0CF
:100B10000072124908394A6080F82090816A0029E1
:100B20001AD0BDE8F05F0847082505FA0CF5254204
:100B300012D01B0710D50B6823F00E030B6090F842
:100B40004010C36B02FA01F15960826380F82120E2
:100B500080F82090016BE2E7BDE8F09F08000240BA
:100B60001C00024030000240440002405800024095
:100B70006C00024030B528B308C813491422194448
:100B8000B1FBF2F18900C163104981630221417711
:100B90001A6843F6F0718A43D0E900142143D0E982
:100BA00002452C432143046921434469214384695C
:100BB00021431143196000214163012242770177EB
:100BC000084630BD012030BDF8FFFDBF00000240E7
:100BD00070B5044690F82000002501280CD00120B3
:100BE00084F8200094F821600020012E06D084F8BB
:100BF00020000225284670BD022070BD022684F820
:100C00002160A0632068066826F001060660204681
:100C1000FFF7E6FEE06A00282068016802D041F094
:100C20000E0106E021F0040101602068016841F036
:100C30000A0101602068016841F001010160D9E703
:100C40002DE9F84FDFF890A100220AF1040B1446B9
:100C500001274FF00F090BF1040E00BF0B6807FAD4
:100C600004F52B40AB4274D1DFF870C14E68A6EB9F
:100C70000C0866452BD00DDC032E34D005DC36B3D2
:100C8000012E19D0022E2FD11BE0112E16D0122EBC
:100C90002AD119E0B8F5881F19D006DCB8F5803FD5
:100CA00015D0B8F5801F1FD111E0B8F5001F0ED088
:100CB000B8F5041F18D10AE0CA6815E0CA68121D09
:100CC00012E0CA6808320FE0CA680C320CE08A6889
:100CD0002AB1012A4FF0080203D0456104E0042242
:100CE00002E0056100E00022FF2B01D8064601E08A
:100CF00000F104064FEA840501D9A5F12005D6F8D4
:100D000000C009FA05F82CEA080C02FA05F54CEACD
:100D1000050CC6F800C04D68ED0057D5304DAE69E2
:100D200046F00106AE61AD6924F0030605F0010549
:100D300000952C4D06EB050CDCF80850A6074FEA91
:100D4000167809FA08F6B543274EB04202D10026BC
:100D500010E03BE0254EB04201D101260AE0244ECE
:100D6000B04201D1022605E0224EB04201D1032655
:100D700000E0042606FA08F62E43CCF808604D6819
:100D8000DAF80060ED03554601D51E4300E09E43AE
:100D90002E604D68DBF80060AD035D4601D51E4353
:100DA00000E09E432E604D68DEF80060ED0275465F
:100DB00001D51E4300E09E432E604D68AD020E4DEE
:100DC0002E6801D51E4300E09E432E60641C102C4B
:100DD000FFF444AFBDE8F88F00040140000011109B
:100DE000001002400000014000080140000C0140DA
:100DF00000100140001401400C0401400AB10161DF
:100E000070470904FBE70000014880687047000054
:100E1000400000207047000070B504001BD094F81B
:100E20003D00002520B984F83C50204600F0B4F97C
:100E3000242084F83D002068016821F00101016050
:100E400000F058FB404A6168914201D83F4900E0F8
:100E50003F49884201D2012070BD3E492368B0FB62
:100E6000F1F159606368934206D94FF49673594380
:100E70004FF47A73B1FBF3F12368491C196261687E
:100E8000914210D84900401EB0FBF1F2521CC2F34F
:100E90000B02042A01D2042022E0B0FBF1F0401C36
:100EA000C0F30B001CE0A368CBB301EBC10202EB63
:100EB0000116421EB2FBF6F2521C42F480421205A9
:100EC00036D06BB301EBC10202EB0111401EB0FB47
:100ED000F1F0401CC0F30B0040F4804040F40040AF
:100EE0002168C861D4E90701084321680860D4E992
:100EF0000310084321688860D4E90501084321688C
:100F0000C8602068016841F001010160256420206B
:100F100084F83D00256384F83E50002070BD00E059
:100F200008E001EB4106421EB2FBF6F2521CC6E796
:100F30000120D5E701EB4101401EB0FBF1F0401C60
:100F4000C0F30B00CAE70000A086010080841E00E9
:100F500000093D0040420F0070470000F8B5002531
:100F60000446009590F83D0020287BD13E4846F28B
:100F7000A8160068B0FBF6F000EBC00606EB001008
:100F80000090461E009606D244F8305F2020607321
:100F900025730320F8BD20688069C043800701D411
:100FA0003046EEE794F83C0001285BD0012084F83D
:100FB0003C0020680668F60703D1066846F0010683
:100FC00006602068066826F400660660222084F821
:100FD0003D00102084F83E0025646262638523484A
:100FE000E062608D208561640004000C26D0A16B56
:100FF0001F488862A16B1F480863A06BC562A06B85
:1010000045632168238D1031626AA06BFFF7E0FD14
:101010002068016841F4806101602068016841F442
:101020008071016084F83C502068416841F440714F
:1010300041602068416841F400610FE02068016868
:1010400041F4806101602068016841F480710160B1
:1010500084F83C502068416841F4E0614160002020
:10106000F8BDFFE70220FBE74C0000200000FFFF77
:10107000652000083B200008F8B5002504460095CF
:1010800090F83D0020287BD13E4846F2A816006823
:10109000B0FBF6F000EBC00606EB00100090461E19
:1010A000009606D244F8305F202060732573032039
:1010B000F8BD20688069C043800701D43046EEE760
:1010C00094F83C0001285BD0012084F83C002068A3
:1010D0000668F60703D1066846F001060660206838
:1010E000066826F400660660212084F83D00102082
:1010F00084F83E002564626263852348E062608D67
:10110000208561640004000C26D0616B1F48886252
:10111000616B1F480863606BC562606B4563226842
:10112000238D1032616A606BFFF752FD2068016801
:1011300041F4806101602068016841F480710160C0
:1011400084F83C502068416841F440714160206857
:10115000416841F400610FE02068016841F480615A
:1011600001602068016841F48071016084F83C509E
:101170002068416841F4E06141600020F8BDFFE76C
:101180000220FBE74C0000200000FFFF6520000864
:101190003B20000870470000F0B585B000240646EB
:1011A000009401940294039400682449884242D137
:1011B000234DA86940F00800A861A869694600F0BD
:1011C00008000490C020009012200190032003909A
:1011D0001C48FFF735FDE86940F40010E861E86954
:1011E0001A4D00F4001004901748C5E90004802748
:1011F000C5E902472C616C61AC612846EC61FFF7E0
:10120000B9FC08B1FFF702FCB5636E620F4D0E48E2
:101210004435143801C5102091C50C4845F81049D3
:1012200044306C61AC61EC61FFF7A4FC08B1FFF7DE
:10123000EDFB75636E6205B0F0BD00000054004028
:1012400000100240000C0140800002400401002018
:101250000248816802781144816070474000002094
:10126000074810B5016841F010010160032000F04B
:1012700079F80F2000F006F800F024F8002010BDE7
:101280000020024070B50D4D04464FF47A71287865
:10129000B1FBF0F00A490968B1FBF0F000F08EFCF8
:1012A00048B9102C07D200222146501E00F03AF80F
:1012B00000206C6070BD012070BD00004000002067
:1012C0004C0000200F4808B5816941F0010181619F
:1012D000816901F001010091C16941F08051C16152
:1012E000C069002200F0805000900F21901E00F095
:1012F00019F80548416821F0E06141F00071416052
:1013000008BD0000001002400000014000F01F0274
:10131000012191404009800000F1E020C0F8001157
:1013200070470000F0B40E4B1B680C46C3F3022359
:10133000C3F10705042D00D90425191D072901D281
:10134000002300E0DB1E012606FA05F1491E2140BC
:1013500099409E40761E16403143F0BC01F0D0B853
:101360000CED00E0064900F0070208684FF6FF03A5
:10137000184040EA0220034A10430860704700000A
:101380000CED00E00000FA052DE9F047DFF854818C
:1013900005460E46D8F8000000F00700B0420CD217
:1013A000D8F8001021F007013143C8F80010D8F830
:1013B000000000F00700B0426FD128684A4C810756
:1013C00012D5400703D5606840F4E060606028787B
:1013D000000703D5606840F4605060606068A968E9
:1013E00020F0F000084360602878C00744D06868A7
:1013F000012816D02168022816D0890700294CDA66
:10140000616821F0030101436160FFF7FDFC696839
:10141000074641F2883001290ED00229814618D0B2
:1014200026E021688903E9E78901E7E7FFF7ECFC9B
:10143000C11B494501D918E081466068C0F38100AD
:101440000128F3D118E000BFFFF7DEFCC11B4945BE
:101450000BD86068C0F381000228F5D10CE000BF12
:10146000FFF7D2FCC11B494502D90320BDE8F08734
:10147000606810F00C0FF3D1D8F80010404601F06E
:101480000701B1420BD9016821F007013143016026
:10149000006800F00700B04201D00120E6E728789C
:1014A000400705D56068E96820F4E06008436060A3
:1014B0002878000706D56068296920F4605040EA62
:1014C000C100606000F036F86168084AC1F303119A
:1014D000515CC840064908600F20FFF7D3FE00208A
:1014E000C4E7000000200240001002405034000811
:1014F0004C0000200448054900684968044AC1F3CB
:101500000221515CC84070474C000020001002408E
:10151000603400080448054900684968044AC1F37A
:10152000C221515CC84070474C00002000100240AE
:101530006034000812A185B00FC98DE80F0014A017
:10154000144A006804905168134801F00C03042BFE
:1015500010D0082B0ED1C1F38343C9031DF803003B
:101560000AD5516804AAC1F34041515C0A4A50436C
:10157000B0FBF1F005B0704708494843FAE70000B6
:1015800002030405060708090A0B0C0D0E0F1010C4
:10159000010200000010024000127A0000093D0024
:1015A0002DE9F84F04460078B94DC00748D0686867
:1015B000C0F38100012807D06868C0F381000228C9
:1015C00009D16868C00306D52868800338D56068EB
:1015D00000286FD034E06068B0F5803F0BD010B1C8
:1015E000B0F5A02F11D0286820F48030286028683A
:1015F00020F4802002E0286840F480302860606891
:1016000088B1FFF701FC064609E0286840F4802015
:101610002860F0E7FFF7F8FB801B642875D828687E
:101620008003F7D50CE0FFF7EFFB064605E000BFAF
:10163000FFF7EAFB801B6428F0D828688003F7D402
:101640002078944E80074FF001094FF000083BD5F9
:10165000686810F00C0F07D06868C0F3810002289A
:1016600009D16868C00306D42868800714D52069AA
:1016700001281FD110E02069B0B1C6F80090FFF733
:10168000C3FB074605E000BFFFF7BEFBC01B0228F7
:10169000C4D828688007F7D52868616920F0F80069
:1016A00040EAC10028600FE0C6F80080FFF7ACFBFD
:1016B000074606E0E9E000BFFFF7A6FBC01B0228D3
:1016C00023D828688007F7D4207800072CD57248E3
:1016D000A169D9B1C0F80090FFF796FB074604E076
:1016E000FFF792FBC01B02280FD8686A8007F7D566
:1016F0006A484FF4FA510068B0FBF1F0009000BF67
:101700000098411E0091FAD20EE080E0C0F80080FF
:10171000FFF77AFB074604E0FFF776FBC01B0228C1
:1017200075D8686A8007F7D42078400760D5E869E3
:101730000027C00008D4E86940F08050E861E869FB
:10174000012700F08050009055480168C90513D466
:101750000168834641F480710160FFF755FB8246C2
:1017600006E000BFFFF750FBA0EB0A0064284ED84C
:10177000DBF80000C005F5D5E06801280AD008B103
:10178000052813D0286A20F001002862286A20F07A
:10179000040002E0286A40F001002862E06841F29B
:1017A000883B98B1FFF730FB82460BE0286A40F097
:1017B00004002862EEE700BFFFF726FBA0EB0A015A
:1017C00059455AD8286A8007F6D50CE0FFF71CFB6C
:1017D000824605E0FFF718FBA0EB0A0159454CD8FB
:1017E000286A8007F6D41FB1E86920F08050E861CC
:1017F000E06988B36968C1F38101022945D00228F4
:10180000C6F8608004D0FFF7FFFA044638E034E001
:10181000FFF7FAFA074604E0FFF7F6FAC01B0228C2
:101820002BD828688001F7D4206AB0F5803F05D115
:101830006868A16820F4003008436860D4E90801B2
:101840000843696821F4741108436860C6F8609021
:10185000FFF7DAFA044606E015E000BFFFF7D4FA16
:10186000001B022809D828688001F7D50BE000BFCB
:10187000FFF7CAFA001B022802D90320BDE8F88F3F
:1018800028688001F4D40020F8E70120F6E7000082
:101890000010024000004242800442424C000020FE
:1018A00000700040704770B5040005D00025A562A7
:1018B00094F8510010B104E0012070BD204600F002
:1018C00033F8022084F851002068016821F04001BB
:1018D0000160D4E901010843D4E90312114308432C
:1018E00061690843218B01F400710843E1690843F1
:1018F000216A0843A16A084321680860A06904219D
:1019000001EA1040616A0843216848602168E06A82
:1019100008612068C16921F40061C1616565012029
:1019200084F85100002070BDF0B585B00024064653
:1019300000940194029403940068284988424BD192
:101940002748816941F480518161816901F48051A6
:101950000491816941F0040181618069214D00F0A9
:1019600004000490A0200090022001900320039026
:1019700069462846FFF764F94020CDE9000469462E
:1019800028460294FFF75CF9184D17488027C5E9EF
:101990000004C5E902472C616C61AC612846EC612A
:1019A000FFF7E8F808B1FFF731F8F5646E620F4D04
:1019B0000D484435143001C5102091C50B4845F839
:1019C000104944306C61AC61EC61FFF7D3F808B1A9
:1019D000FFF71CF8B5646E6205B0F0BD0030014041
:1019E00000100240000801401C000240E4010020F9
:1019F000704770472DE9F041044690F850000026EA
:101A000001280CD0012084F8500094F851000025E2
:101A1000676801280CD0B7F5827F07D102E0022069
:101A2000BDE8F081A7680FB9042801D0022651E073
:101A300031B12AB123B194F85100012802D004E059
:101A4000012647E0052084F8510065652163A386DF
:101A5000E386A263A387E3872564656494F8510055
:101A600004283BD0E16C2048C8622048E16C8862C1
:101A7000E16C1F480863E06C4563E38F2168A26B4B
:101A80000C31E06CFFF7A4F82068416841F00101D7
:101A90004160A06CC562A06C8562A06C0563A06CFF
:101AA0004563E38E2268216B0C32A06CFFF790F83F
:101AB00020680168490603D4016841F040010160D3
:101AC0002068416841F0200141602068416841F090
:101AD0000201416084F850503046A1E7E16C0548AE
:101AE000C8620548C2E70000772500082D260008D7
:101AF00041250008632500088125000870B50446CB
:101B000090F850000026012809D0012084F85000E8
:101B100094F851000025012803D002263FE002205E
:101B200070BD89B182B1032084F8510065652163DD
:101B3000A286E286A56365642564A587E587A0681B
:101B4000B0F5004F02D006E0012628E020680168C9
:101B500041F480410160A16C1348C862A16C134834
:101B60008862A16C12480863A06C4563E38E22680A
:101B7000216B0C32A06CFFF72BF820680168490636
:101B800003D4016841F0400101602068416841F0E0
:101B9000200141602068416841F00201416084F801
:101BA0005050304670BD00006D250008D325000858
:101BB00041250008704770477047704710B5401EB8
:101BC000B0F1807F01D3012010BD4FF0E0246061AF
:101BD0000F21601700F094FC0020A0610720206115
:101BE000002010BD7047704730B590F83C20012AA6
:101BF00020D0012280F83C20022380F83D30036889
:101C00005C6824F070045C6003685C680D682C43B9
:101C10005C6003689C6824F080049C6003689C6896
:101C200049680C439C6080F83D20002180F83C10FE
:101C3000084630BD022030BD10B5040003D094F832
:101C40003D0010B107E0012010BD002084F83C00E9
:101C5000204600F00DF8022084F83D00211D206888
:101C600000F0B4FD012084F83D00002010BD00000C
:101C700008B50068B0F1804F12D10A48C16941F03F
:101C80000101C161C069002200F00100009005213E
:101C90001C20FFF747FBBDE808401C20FFF736BBC0
:101CA00008BD00000010024070B5044690F83C00EA
:101CB000012817D0012584F83C50022084F83D000B
:101CC0002068826822F0770222F47F4282600868EE
:101CD000502837D00DDC202859D005DC88B31028D7
:101CE00041D151E0022070BD302853D040283AD174
:101CF0003FE060282ED070280BD0B0F5805F03D075
:101D0000B0F5005F2FD110E02068816821F0070155
:101D100015E0CB68D1E90121206800F08DFD216834
:101D2000886840F0770088601DE0CB68D1E9012128
:101D3000206800F081FD2068816841F48041816065
:101D400011E01EE0CA684968206800F087FD502154
:101D5000206806E0CA684968206800F090FD6021AC
:101D6000206800F073FD84F83D50002084F83C00AA
:101D700070BDCA684968206800F070FD4021206885
:101D8000EFE700212068ECE710212068E9E7202137
:101D90002068E6E730212068E3E7704770B5044625
:101DA000006801694FF00005C943890715D4C1686F
:101DB000C943890711D4E91E0161012020772068F9
:101DC00080698007204602D0FFF7E7FF04E000F0BB
:101DD00098F8204600F096F8257720680169C943F5
:101DE000490717D4C168C943490713D46FF00401E8
:101DF0000161022020772068806910F4407F20462E
:101E000002D0FFF7CAFF04E000F07BF8204600F0A4
:101E100079F8257720680169C943090716D4C16894
:101E2000C943090712D46FF008010161042020772B
:101E30002068C0698007204602D0FFF7AEFF04E0AB
:101E400000F05FF8204600F05DF825772068016912
:101E5000C943C90617D4C168C943C90613D46FF072
:101E600010010161082020772068C06910F4407FCC
:101E7000204602D0FFF791FF04E000F042F8204630
:101E800000F040F8257720680169C943C90708D1E7
:101E9000C168C943C90704D1891E0161204600F009
:101EA00032F820680169C943090609D4C168C943E9
:101EB000090605D46FF0800101612046FFF792FE0C
:101EC00020680169C943490609D4C168C943490664
:101ED00005D46FF040010161204600F015F820683C
:101EE0000169C94389060BD4C168C943890607D46F
:101EF0006FF0200101612046BDE87040FFF773BE1E
:101F000070BD704770477047704770B5040004D0CB
:101F100094F83900002510B106E0012070BD84F866
:101F20003850204600F022F8242084F83900206838
:101F3000C16821F40051C160204600F0B3FC206864
:101F4000016921F4904101612068416921F02A0171
:101F500041612068C16841F40051C160E5632020FF
:101F600084F8390084F83A00002070BDF0B585B0DF
:101F700000240646009401940294039400682949C1
:101F800088424CD12848816941F48041816181694E
:101F900001F480410491816941F00401816180690B
:101FA000224D00F0040004904FF4007000900220D5
:101FB00001900320039069462846FEF741FE28154C
:101FC000CDE90004694628460294FEF739FE194D12
:101FD00017488027C5E90004C5E902472C616C61F8
:101FE000AC612846EC61FEF7C5FD08B1FEF70EFDB9
:101FF00075636E620F4D0E484435143801C51020CC
:1020000091C50C4845F8104944306C61AC61EC61F5
:10201000FEF7B0FD08B1FEF7F9FC35636E6205B05E
:10202000F0BD0000003801400010024000080140EF
:1020300058000240EC020020FEE710B5406A01683B
:102040000A6822F480620A6000214185202280F81B
:102050003D2080F83E10016C41F010010164FEF754
:10206000D9FE10BD10B50146406A90F83D3090F899
:102070003E40496A0022212B09681CD0222B01D145
:10208000202C18D00B6823F480630B6001680B6868
:1020900043F400730B6001684B6823F480534B607A
:1020A00001684B6823F400634B604285016C69B1A1
:1020B000FEF7B0FE10BD4B6823F400634B60428511
:1020C0000068416841F44071416010BD202180F8F2
:1020D0003D1090F83E1080F83E20402902D0FEF7D7
:1020E0003BFF10BDFFF756F810BD0000FEB5634A78
:1020F0004FF6FF7614463346218C6148FEF7BCFF4D
:10210000334604F11F02218C5D48FEF7B5FF3346CC
:102110002246218C5A48FEF7AFFF334602AA218C93
:102120005748FEF71BFF9DF80800C0077DD03346D7
:102130002246218C5248FEF79FFF3346621C218CB9
:102140004F48FEF799FF33462246218C4C48FEF754
:1021500093FF33466A46218C4948FEF7FFFE33461B
:102160002246218C4648FEF787FF3346A21C218C6D
:102170004348FEF781FF33462246218C4048FEF754
:102180007BFF6D463346218C3D486A1CFEF7E6FE18
:1021900033462246218C3A48FEF76EFF3346E21C56
:1021A000218C3748FEF768FF33462246218C34489D
:1021B000FEF762FF3346AA1C218C3148FEF7CEFEA3
:1021C00033462246218C2E48FEF756FF3346221D09
:1021D000218C2B48FEF750FF33462246218C28489D
:1021E000FEF74AFF3346EA1C218C2548FEF7B6FE6F
:1021F00033462246218C2248FEF73EFF3346621DBD
:10220000218C1F48FEF738FF33462246218C1C489C
:10221000FEF732FF33462A1D218C1948FEF79EFE39
:1022200033462246218C164800E026E0FEF724FFC4
:102230003346A21D218C1248FEF71EFF334622466C
:10224000218C0F48FEF718FF33466A1D218C0C487D
:10225000FEF784FEBDF800004FF4C861C00B484390
:102260006084BDF80200C00B4843A084BDF80400A0
:1022700040F6C411C00B4843E084FEBD00000020BE
:10228000B00000201D4808B5416941F001014161DD
:102290004069002200F00100009005210C20FFF7AA
:1022A00041F80C20FFF732F8002205210D20FFF73E
:1022B00039F80D20FFF72AF8002205210E20FFF73C
:1022C00031F80E20FFF722F8002205210F20FFF73A
:1022D00029F80F20FFF71AF8002205211020FFF738
:1022E00021F81020FFF712F8002205211120FFF736
:1022F00019F8BDE808401120FFF708B800100240A7
:1023000010B58AB014220B496846FDF767FF00211B
:10231000684600F0C0FB084C06491422A063143143
:1023200005A8FDF75BFF002105A800F0B4FBE06302
:102330000AB010BD283400080000002070B586B037
:10234000002422480094019402940394816941F08E
:1023500020018161816901F020010491816941F0CE
:1023600004018161816901F004010491816941F0F6
:10237000080181618069164E00F008000490002277
:102380004FF40C513046FEF739FD41F20300CDE920
:102390000004694630460294FEF752FC7014009027
:1023A0000125CDE901540224694630460394FEF725
:1023B00047FC4FF44070CDE90005CDE90254694671
:1023C0003046FEF73DFC06B070BD00000010024034
:1023D000000C01400D4810B50B4901600C494160EB
:1023E00000214FF480428160C0E9031241618161A4
:1023F000C1610162FEF710FD002803D0BDE8104066
:10240000FEF704BB10BD000000540040B0000020E7
:10241000A0860100104810B50E4901604FF482718A
:102420004160002102228160C0E903120122426161
:10243000520282613822C0E90721416281620A2189
:10244000C162FFF730FA002803D0BDE81040FEF764
:10245000DDBA10BD003001408C01002010B586B0FF
:1024600000241748009401940294039404944FF0BC
:1024700080410594016041F61F41C0E9011442F218
:102480000F71C0E903148461FFF7D6FB08B1FEF7B2
:10249000BDFA4FF48050009069460948FFF704FCEC
:1024A00008B1FEF7B3FA049404A905480594FFF7B0
:1024B0009BFB002801D0FEF7A9FA06B010BD000072
:1024C0006C0200200C4810B50A4901604FF4E1315C
:1024D0004160002181600C22C160C0E90412816169
:1024E000C161FFF712FD002803D0BDE81040FEF7E0
:1024F0008DBA10BD00380140AC020020FEE77047E5
:102500000907090E002806DA00F00F0000F1E020AC
:1025100080F8141D704700F1E02080F80014704727
:1025200038B50B46009204460022802100F0A6F840
:10253000002804D0606D40F020006065032038BDA5
:1025400010B5406A01684A6822F003024A60416D92
:1025500041F010014165012180F85110FFF7A2F907
:1025600010BD10B5406AFFF744FA10BD10B5406ABF
:10257000FFF721FB10BD10B5406AFFF71EFB10BD31
:1025800010B50146406A0968096889061ED40168C9
:102590004A6822F003024A604168B1F5827F0BD19C
:1025A0008168B1F5004F02D0B1F5806F04D10168A8
:1025B0000A6822F040020A600021C187012180F8E8
:1025C0005110416D11B1FFF76DF910BDFFF710FA11
:1025D00010BD38B50546446AFEF716FC0246286869
:1025E000006880061ED42068416821F00201416025
:1025F00064212046FFF794FF18B1606D40F0200081
:102600006065A068002118B92068C26880680090E1
:10261000E186012084F85100606D18B12046FFF773
:1026200041F938BD2046FFF7C5FA38BD70B50546FB
:10263000446AFEF7E9FB024628680068800619D460
:1026400064212046FFF76CFF18B1606D40F0200058
:1026500060652068416821F0030141600020E08648
:10266000E087012084F85100606D18B12046FFF723
:1026700019F970BD2046FFF79FFA70BD2DE9F041B2
:102680001D4617460E460446DDF8188035E0681CE6
:1026900033D02DB1FEF7B8FBA0EB0800A8422CD335
:1026A0002068416821F0E00141606068B0F5827FF8
:1026B0000BD1A068B0F5004F02D0B0F5806F04D107
:1026C0002068016821F040010160A06AB0F5005F58
:1026D0000AD1206801684DF6FF7211400160206840
:1026E000016841F400510160012084F8510000208C
:1026F00084F850000320BDE8F0812068806836EA45
:10270000000004D00020B842C1D10020F3E701202E
:10271000F9E7012000F0A9F9FBE710B5FEF798FDF5
:10272000BDE8104000F0ADB930B58FB02821684643
:10273000FDF76DFD14210AA8FDF769FD01210804CC
:10274000CDE900100024029402250491CDE9075040
:102750004FF4E01009906846FEF722FF0F20CDE904
:102760000A056802CDE90C4002210AA80E94FEF782
:102770000BFE0FB030BD00000D48016841F00101B3
:10278000016041680B4A1140416001680A4A1140EA
:102790000160016821F480210160416821F4FE019B
:1027A00041604FF41F0181600449C0030860704715
:1027B000001002400000FFF8FFFFF6FE08ED00E009
:1027C0000148FFF7EBBA00006C020020F0B5026888
:1027D000164B174C174D4FF08047984205D0B84222
:1027E00003D0A04201D0A84203D122F070064A686B
:1027F0003243984205D0B84203D0A04201D0A8424B
:1028000003D122F44074CA68224322F080044A694A
:10281000224302608A68C2620A688262984201D1D9
:102820000969016301214161F0BD0000002C0140F4
:10283000000400400008004010B5846842EA03220A
:1028400024F47F440A432243826010BD826822F050
:1028500070020A4342F007018160704710B5036AB5
:10286000046A24F001040462846924F0F00444EA58
:10287000021423F00A020A438461026210BD10B5FB
:10288000036A23F0100303628369046A23F470432C
:1028900043EA023224F0A00343EA0111826101629B
:1028A00010BD00002DE9F041044600680169E268AE
:1028B00021F44051114301612169A0680843616915
:1028C00008432168CA6841F20C639A430243CA6014
:1028D00020684169A26921F44071114341614C496A
:1028E00020686425322688423CD1FEF713FE00EBB7
:1028F000C00101EB001061688900B0FBF1F7FEF741
:1029000009FE00EBC00101EB00106168B0468900D0
:10291000B0FBF1F0B0FBF5F06FF01801484307EBA6
:10292000800106EB0110B0FBF5F000F0F006FEF7B9
:10293000F1FD00EBC00101EB001061688900B0FB04
:10294000F1F0B0FBF5F006EB0016FEF7E3FD00EB4F
:10295000C00101EB001061688900B0FBF1F7FEF7E0
:10296000D9FD3BE0FEF7C6FD00EBC00101EB001016
:1029700061688900B0FBF1F7FEF7BCFD00EBC00118
:1029800001EB00106168B0468900B0FBF1F0B0FBCC
:10299000F5F06FF01801484307EB800106EB0110DA
:1029A000B0FBF5F000F0F006FEF7A4FD00EBC0016F
:1029B00001EB001061688900B0FBF1F0B0FBF5F0AD
:1029C00006EB0016FEF796FD00EBC00101EB0010D0
:1029D00061688900B0FBF1F7FEF78CFD00EBC001E8
:1029E00001EB001061688900B0FBF1F0B0FBF5F07D
:1029F0006FF01801484307EB800108EB0110B0FBB2
:102A0000F5F0216800F00F0030448860BDE8F081E7
:102A100000380140FEE702E008C8121F08C1002A82
:102A2000FAD170477047002001E001C1121F002A4F
:102A3000FBD17047FEF714FCFFF776FEFFF77EFC34
:102A4000FFF720FCFFF7C6FCFFF7E4FCFFF706FDED
:102A5000FFF738FDFFF754FC00F00EF8FEE70146E3
:102A60000020842900D0C81C704710B500B901208F
:102A700000F0FAFA002010BD10B500F01BFB00209A
:102A800010BD10B500F0FCFB012803D0BDE81040DC
:102A900000F0B4BB10BD3EB504460D46B0F90800C9
:102AA000FFF7DDFF02A9CDE90001208A2B4682B2A3
:102AB000D4E9001000F0B8FB012801D000203EBD91
:102AC00002983EBD2DE9F041184C0F460546E668D8
:102AD0002068001D00F012FA38B9206890F82C1018
:102AE00001208840216981432161681C07D137B1E9
:102AF0002168BDE8F0410E48091D00F037BA206892
:102B00003544B5424560216805D2A06BBDE8F0416F
:102B1000091D00F013BA606B091D00F00FFAA06ADE
:102B2000854200D2A562BDE8F0810000500000207F
:102B3000500400202DE9F041054600F023FA2E4C08
:102B4000A068401CA06020682C4F10B1606940B3A1
:102B50002DE02560A068012829D1002606EB86001B
:102B600007EB800000F0DCF9761C072EF6D3234833
:102B70008C3000F0D5F92148A03000F0D1F91F4881
:102B8000B43000F0CDF91D48C83000F0C9F91B4839
:102B9000DC3000F0C5F919488C3060631430A06354
:102BA00005E02068E96AC06A884200D82560606A4A
:102BB000401C6062E96A012022698840104320615C
:102BC00001EB810007EB8000291D00F0CFF900F038
:102BD000F9F9606900280CD02068E96AC06A884267
:102BE00007D207494FF080500860BFF34F8FBFF303
:102BF0006F8FBDE8F08100005000002074030020BA
:102C000004ED00E070B5114E114C17E000F086FAAB
:102C10003068B8B100F0A6FB00F0B4F9F068C56800
:102C2000281D00F06BF9A068401EA0606068401E7F
:102C3000606000F0C7F9284600F00CF860680028D2
:102C4000E4D170BD00F08EFBF8E700003C040020EA
:102C50005000002010B50446006B00F0C7F9204674
:102C6000BDE8104000F0C2B910484FF4406142077F
:102C700006D0C01D0D4920F00700411AC1F5406182
:102C80000B4A00230144C2E900030839103A21F03D
:102C9000070111604B600B600B1AC0E900139360D1
:102CA0004FF000405360D060704700006404002083
:102CB0009C000020074C4FF08056074DFFF7A2FF05
:102CC00020680128FAD92E60BFF34F8FBFF36F8FB2
:102CD000F4E700007403002004ED00E02DE9F04764
:102CE0009A46DDE9098481466FF00303206B03EB0C
:102CF00082021044089D20F00706700707D050207C
:102D000080F31188BFF34F8FBFF36F8FFEE7231857
:102D10000A5C83F834200A5C12B1401C1028F6D3F8
:102D2000002784F84370072D00D30625E562C4E927
:102D30001157201D00F0FFF804F1180000F0FBF817
:102D40002461C5F107006462A061E76484F85070F3
:102D500052464946304600F0BFF82060B8F1000FF7
:102D600001D0C8F80040BDE8F087000030B5114937
:102D700000E011460A688242FBD34B685C1884422B
:102D800003D1406818444860084643681C189442C0
:102D900009D1084C103C2468A24209D052681A4458
:102DA00042600A6812680260814200D0086030BD4B
:102DB0000460F9E79C0000200648416B096829B1CE
:102DC000416BC968C9684968816270474FF0FF313B
:102DD000FAE700005000002008484068401C4FF00F
:102DE000500080F3118804D0BFF34F8FBFF36F8F73
:102DF000FEE7BFF34F8FBFF36F8FFEE7A400002005
:102E00002DE9F0410546002700F088F9314E306881
:102E100008B9FFF729FFF06805424BD1C5B3083563
:102E200068070ED005F00700C0F1080005446807E8
:102E300007D0502080F31188BFF34F8FBFF36F8FFF
:102E4000FEE72DB37068854234D822481030014621
:102E50000C6801E020460C466168A94202D2216854
:102E60000029F7D131688C4224D0076821680160BD
:102E700060680837411B10290FD96019420708D034
:102E8000502080F31188BFF34F8FBFF36F8FFEE7A1
:102E900010E041606560FFF769FF61687068401A83
:102EA0007060B268904200D2B060F06801430020C8
:102EB000C4E9000100F056FA780707D0502080F3EB
:102EC0001188BFF34F8FBFF36F8FFEE73846BDE821
:102ED000F08100008C00002010B5031F4FF08074BB
:102EE0001C601B1F21F001011960191F024B0B60B0
:102EF000143940380A6010BDD92D0008D0E90132DC
:102F000001699A60D0E901235A604A68824201D17E
:102F100082684A60002202610868401E08607047AB
:102F200000F108014FF0FF32C0E90112C1600161F8
:102F300000210160704700210161704730B50B68C6
:102F40005A1C02D000F1080202E0026904E02246A5
:102F5000546825689D42FAD953684B6099608A602D
:102F6000516008610168491C016030BD42684A60D7
:102F700093688B6093685960916008610168491C8F
:102F800001607047502080F31188BFF34F8FBFF36B
:102F90006F8F0A494868401C486001280CD10848D6
:102FA000006810F0FF0F07D0502080F31188BFF3A6
:102FB0004F8FBFF36F8FFEE770470000A400002023
:102FC00004ED00E00849486828B1401E486001D17E
:102FD00080F311887047502080F31188BFF34F8F22
:102FE000BFF36F8FFEE70000A400002070B500283B
:102FF00027D0144DA0F108046168E868014207D1A8
:10300000502080F31188BFF34F8FBFF36F8FFEE71F
:1030100022683AB1502080F31188BFF34F8FBFF37D
:103020006F8FFEE78143616000F078F8606869683F
:10303000084468602046FFF799FEBDE8704000F044
:1030400091B970BD8C00002006484FF47A71006879
:10305000B0FBF1F14FF0E020491E41610721016111
:10306000704700004C00002010B5020014D00F483B
:10307000006B38B1502080F31188BFF34F8FBFF33E
:103080006F8FFEE700F04AF800211046FFF71AFDA7
:1030900000F068F9002807D105494FF0805008601A
:1030A000BFF34F8FBFF36F8F10BD000050000020A3
:1030B00004ED00E01CB515480024CDE9004023468E
:1030C000802213A1144800F0AFF8012809D0401C59
:1030D0001AD1502080F31188BFF34F8FBFF36F8F49
:1030E000FEE7502080F31188BFF34F8FBFF36F8F3F
:1030F00006484FF0FF312C38816201214161C460E4
:10310000BDE81C4000F040B81CBD00007C00002061
:1031100049444C4500000000B52C00080248016BF2
:10312000491C016370470000500000201448016BE7
:1031300011B10121C16170470021C1610169B1FA7A
:1031400081F1C1F11F0101EB81020E4951F82230DA
:103150006BB101EB820101F108034A6852684A60D1
:103160009A4201D152684A60D1680160704750208C
:1031700080F31188BFF34F8FBFF36F8FFEE700001E
:1031800050000020740300201CB5194908780190F4
:10319000FF20087008788DF800009DF80000154A9F
:1031A00000F0500010700720906005E09DF800309E
:1031B0005B008DF80030401E9DF800301B06F5D4F2
:1031C000000200F4E0609060019808700A4801680D
:1031D00041F470010160016841F070410160FFF746
:1031E00033FF00205060FCF79DFF00201CBD000055
:1031F00000E400E0A400002020ED00E010B5502025
:1032000080F31188BFF34F8FBFF36F8F00F046F844
:1032100018B104494FF080500860002080F31188F5
:1032200010BD000004ED00E02DE9FF5F8346DDE9FD
:103230000E87994616468A469000FFF7E1FD050085
:103240001AD05420FFF7DCFD040012D025630021C2
:10325000CDE90241CDE900874B46324651465846FA
:10326000FFF73CFD2046FFF765FC012004B0BDE8F8
:10327000F09F2846FFF7BAFE4FF0FF30F6E7000058
:103280000548416919B1006B18B100207047012051
:103290007047022070470000500000202DE9F041E7
:1032A0002E4C0027206B40B1A069401CA061E06952
:1032B00000B101273846BDE8F081E668761CE6607B
:1032C00013D1606B006838B1502080F31188BFF3D0
:1032D0004F8FBFF36F8FFEE7606BA16B6163A063DD
:1032E000206A401C2062FFF767FDA06ADFF870804B
:1032F000864209D3606B006880B1606BC068C568A6
:10330000686886420DD2A0622068C06A00EB800126
:1033100058F821000128CAD90127C8E74FF0FF302B
:10332000F1E7281DFFF7EAFDA86A18B105F11800BA
:10333000FFF7E4FDE86A0121226981401143216120
:1033400000EB800108EB8100291DFFF70FFEE86A02
:103350002168C96A8842CDD30127CBE750000020FD
:10336000740300202DE9F0472C4D00242746286BDC
:1033700038B1FFF707FE286B401E2863286B40B169
:1033800046E0502080F31188BFF34F8FBFF36F8F5B
:10339000FEE7A968224E0120D1B3A6F1B409804608
:1033A0003068E8B1F068C46804F11800FFF7A6FDC2
:1033B000201DFFF7A3FDE06A2A6908FA00F1114316
:1033C000296100EB800109EB8100211DFFF7CEFD93
:1033D000E06A2968C96A8842E2D3C5F81C80DFE741
:1033E0000CB1FFF7E9FCAC6944B14646FFF756FF64
:1033F00000B1EE61641EF9D10020A861E86938B11E
:103400000849012738070860BFF34F8FBFF36F8F5C
:10341000FFF7D8FD3846BDE8F087000050000020D7
:103420002804002004ED00E0703400081327000891
:103430000000000000000000800000006834000868
:103440000F0A0008020000000000000080000000D9
:103450000000000000000000010203040607080944
:1034600000000000010203044765745F496E6600B6
:1034700064656661756C745461736B009C340008FC
:1034800000000020B0000000162A00084C3500089B
:10349000B0000020B8130000262A00080E0304051F
:1034A0000607080000121314151617020304050678
:1034B000072322047D7C001100410F020E00000052
:1034C00000000000000000000000000000000000FC
:1034D00000000000000000000000000001000000EB
:1034E000100000000000000000A24A0400000000DC
:1034F00000000000000000000000000000000000CC
:1035000000000000000000000000000000000000BB
:1035100000000000000000000000000000000000AB
:10352000000000000000000000000000000000009B
:10353000000000000000000000000000000000008B
:0C35400000000000AAAAAAAA00000000D7
:04000005080000ED02
:00000001FF
